{
  "contractName": "Elections",
  "abi": [
    {
      "constant": true,
      "inputs": [],
      "name": "votingPhaseStart",
      "outputs": [
        {
          "name": "",
          "type": "uint256"
        }
      ],
      "payable": false,
      "stateMutability": "view",
      "type": "function"
    },
    {
      "constant": true,
      "inputs": [],
      "name": "votingPhaseEnd",
      "outputs": [
        {
          "name": "",
          "type": "uint256"
        }
      ],
      "payable": false,
      "stateMutability": "view",
      "type": "function"
    },
    {
      "constant": true,
      "inputs": [],
      "name": "owner",
      "outputs": [
        {
          "name": "",
          "type": "address"
        }
      ],
      "payable": false,
      "stateMutability": "view",
      "type": "function"
    },
    {
      "constant": true,
      "inputs": [],
      "name": "addCandidatesPhaseStart",
      "outputs": [
        {
          "name": "",
          "type": "uint256"
        }
      ],
      "payable": false,
      "stateMutability": "view",
      "type": "function"
    },
    {
      "constant": true,
      "inputs": [],
      "name": "addCandidatesPhaseEnd",
      "outputs": [
        {
          "name": "",
          "type": "uint256"
        }
      ],
      "payable": false,
      "stateMutability": "view",
      "type": "function"
    },
    {
      "constant": true,
      "inputs": [
        {
          "name": "",
          "type": "address"
        }
      ],
      "name": "Candidates",
      "outputs": [
        {
          "name": "offChainId",
          "type": "uint256"
        },
        {
          "name": "SSN",
          "type": "string"
        },
        {
          "name": "voteCount",
          "type": "uint256"
        },
        {
          "name": "exists",
          "type": "bool"
        }
      ],
      "payable": false,
      "stateMutability": "view",
      "type": "function"
    },
    {
      "constant": true,
      "inputs": [
        {
          "name": "",
          "type": "address"
        }
      ],
      "name": "Voters",
      "outputs": [
        {
          "name": "offChainId",
          "type": "uint256"
        },
        {
          "name": "SSN",
          "type": "string"
        },
        {
          "name": "voteWeight",
          "type": "uint256"
        },
        {
          "name": "voted",
          "type": "bool"
        },
        {
          "name": "exists",
          "type": "bool"
        }
      ],
      "payable": false,
      "stateMutability": "view",
      "type": "function"
    },
    {
      "inputs": [
        {
          "name": "_owner",
          "type": "address"
        },
        {
          "name": "_addCandidatesPhaseStart",
          "type": "uint256"
        },
        {
          "name": "_addCandidatesPhasePeriod",
          "type": "uint256"
        },
        {
          "name": "_votingPhasePeriod",
          "type": "uint256"
        }
      ],
      "payable": false,
      "stateMutability": "nonpayable",
      "type": "constructor"
    },
    {
      "anonymous": false,
      "inputs": [
        {
          "indexed": false,
          "name": "_candidate",
          "type": "address"
        },
        {
          "indexed": false,
          "name": "_id",
          "type": "uint256"
        }
      ],
      "name": "ParticipantAdded",
      "type": "event"
    },
    {
      "anonymous": false,
      "inputs": [
        {
          "indexed": false,
          "name": "_from",
          "type": "address"
        },
        {
          "indexed": false,
          "name": "_to",
          "type": "address"
        },
        {
          "indexed": false,
          "name": "_delegateWeight",
          "type": "uint256"
        }
      ],
      "name": "DelegateAnotherVoter",
      "type": "event"
    },
    {
      "anonymous": false,
      "inputs": [
        {
          "indexed": false,
          "name": "_voter",
          "type": "address"
        },
        {
          "indexed": false,
          "name": "_candidate",
          "type": "address"
        }
      ],
      "name": "Voted",
      "type": "event"
    },
    {
      "constant": false,
      "inputs": [
        {
          "name": "_candidate",
          "type": "address"
        },
        {
          "name": "_id",
          "type": "uint256"
        },
        {
          "name": "_ssn",
          "type": "string"
        }
      ],
      "name": "AddCandidate",
      "outputs": [],
      "payable": false,
      "stateMutability": "nonpayable",
      "type": "function"
    },
    {
      "constant": false,
      "inputs": [
        {
          "name": "_id",
          "type": "uint256"
        },
        {
          "name": "_ssn",
          "type": "string"
        }
      ],
      "name": "RegisterVoter",
      "outputs": [],
      "payable": false,
      "stateMutability": "nonpayable",
      "type": "function"
    },
    {
      "constant": false,
      "inputs": [
        {
          "name": "_voter",
          "type": "address"
        }
      ],
      "name": "DelegateVoter",
      "outputs": [],
      "payable": false,
      "stateMutability": "nonpayable",
      "type": "function"
    },
    {
      "constant": false,
      "inputs": [
        {
          "name": "_candidate",
          "type": "address"
        }
      ],
      "name": "Vote",
      "outputs": [],
      "payable": false,
      "stateMutability": "nonpayable",
      "type": "function"
    }
  ],
  "bytecode": "0x60806040523480156200001157600080fd5b506040516080806200284a833981018060405260808110156200003357600080fd5b8101908080519060200190929190805190602001909291908051906020019092919080519060200190929190505050600073ffffffffffffffffffffffffffffffffffffffff168473ffffffffffffffffffffffffffffffffffffffff1614158015620000a1575060008314155b8015620000af575060008214155b8015620000bd575060008114155b62000114576040517f08c379a000000000000000000000000000000000000000000000000000000000815260040180806020018281038252603f8152602001806200280b603f913960400191505060405180910390fd5b836000806101000a81548173ffffffffffffffffffffffffffffffffffffffff021916908373ffffffffffffffffffffffffffffffffffffffff160217905550826001819055506200016d8383620001a860201b60201c565b6002819055506002546003819055506200019060035482620001a860201b60201c565b600481905550600060058190555050505050620001b5565b6000818301905092915050565b61264680620001c56000396000f3fe608060405234801561001057600080fd5b50600436106100a95760003560e01c80638da5cb5b116100715780638da5cb5b146102d857806399233f6814610322578063cf7af47a14610340578063f39f05f71461035e578063f5b0834614610434578063fdedaa8a14610478576100a9565b806305d78809146100ae5780630621b836146100cc578063089f8947146101915780630dee10381461027657806357ad5d0e14610294575b600080fd5b6100b6610559565b6040518082815260200191505060405180910390f35b61018f600480360360408110156100e257600080fd5b81019080803590602001909291908035906020019064010000000081111561010957600080fd5b82018360208201111561011b57600080fd5b8035906020019184600183028401116401000000008311171561013d57600080fd5b91908080601f016020809104026020016040519081016040528093929190818152602001838380828437600081840152601f19601f82011690508083019250505050505050919291929050505061055f565b005b610274600480360360608110156101a757600080fd5b81019080803573ffffffffffffffffffffffffffffffffffffffff16906020019092919080359060200190929190803590602001906401000000008111156101ee57600080fd5b82018360208201111561020057600080fd5b8035906020019184600183028401116401000000008311171561022257600080fd5b91908080601f016020809104026020016040519081016040528093929190818152602001838380828437600081840152601f19601f8201169050808301925050505050505091929192905050506109d1565b005b61027e611047565b6040518082815260200191505060405180910390f35b6102d6600480360360208110156102aa57600080fd5b81019080803573ffffffffffffffffffffffffffffffffffffffff16906020019092919050505061104d565b005b6102e0611998565b604051808273ffffffffffffffffffffffffffffffffffffffff1673ffffffffffffffffffffffffffffffffffffffff16815260200191505060405180910390f35b61032a6119bd565b6040518082815260200191505060405180910390f35b6103486119c3565b6040518082815260200191505060405180910390f35b6103a06004803603602081101561037457600080fd5b81019080803573ffffffffffffffffffffffffffffffffffffffff1690602001909291905050506119c9565b604051808581526020018060200184815260200183151515158152602001828103825285818151815260200191508051906020019080838360005b838110156103f65780820151818401526020810190506103db565b50505050905090810190601f1680156104235780820380516001836020036101000a031916815260200191505b509550505050505060405180910390f35b6104766004803603602081101561044a57600080fd5b81019080803573ffffffffffffffffffffffffffffffffffffffff169060200190929190505050611a9e565b005b6104ba6004803603602081101561048e57600080fd5b81019080803573ffffffffffffffffffffffffffffffffffffffff16906020019092919050505061236e565b60405180868152602001806020018581526020018415151515815260200183151515158152602001828103825286818151815260200191508051906020019080838360005b8381101561051a5780820151818401526020810190506104ff565b50505050905090810190601f1680156105475780820380516001836020036101000a031916815260200191505b50965050505050505060405180910390f35b60035481565b6040518060400160405280600581526020017f566f7465720000000000000000000000000000000000000000000000000000008152503360405160200180807f43616e6469646174650000000000000000000000000000000000000000000000815250600901905060405160208183030381529060405280519060200120826040516020018082805190602001908083835b6020831061061457805182526020820191506020810190506020830392506105f1565b6001836020036101000a03801982511681845116808217855250505050505090500191505060405160208183030381529060405280519060200120141561070057600660008273ffffffffffffffffffffffffffffffffffffffff1673ffffffffffffffffffffffffffffffffffffffff16815260200190815260200160002060030160009054906101000a900460ff16156106fb576040517f08c379a00000000000000000000000000000000000000000000000000000000081526004018080602001828103825260248152602001806125846024913960400191505060405180910390fd5b6107c4565b600760008273ffffffffffffffffffffffffffffffffffffffff1673ffffffffffffffffffffffffffffffffffffffff16815260200190815260200160002060030160019054906101000a900460ff16156107c3576040517f08c379a00000000000000000000000000000000000000000000000000000000081526004018080602001828103825260208152602001807f5468697320766f74657220697320616c7265616479207265676973746572656481525060200191505060405180910390fd5b5b83600760003373ffffffffffffffffffffffffffffffffffffffff1673ffffffffffffffffffffffffffffffffffffffff1681526020019081526020016000206000018190555082600760003373ffffffffffffffffffffffffffffffffffffffff1673ffffffffffffffffffffffffffffffffffffffff16815260200190815260200160002060010190805190602001906108619291906124de565b506001600760003373ffffffffffffffffffffffffffffffffffffffff1673ffffffffffffffffffffffffffffffffffffffff168152602001908152602001600020600201819055506000600760003373ffffffffffffffffffffffffffffffffffffffff1673ffffffffffffffffffffffffffffffffffffffff16815260200190815260200160002060030160006101000a81548160ff0219169083151502179055506001600760003373ffffffffffffffffffffffffffffffffffffffff1673ffffffffffffffffffffffffffffffffffffffff16815260200190815260200160002060030160016101000a81548160ff0219169083151502179055507f287ab65235aa9a0baeed5b973fda48c77ebdc6f3dd931cfda1c082c0aecc1e733385604051808373ffffffffffffffffffffffffffffffffffffffff1673ffffffffffffffffffffffffffffffffffffffff1681526020018281526020019250505060405180910390a150505050565b6000809054906101000a900473ffffffffffffffffffffffffffffffffffffffff1673ffffffffffffffffffffffffffffffffffffffff163373ffffffffffffffffffffffffffffffffffffffff1614610a76576040517f08c379a000000000000000000000000000000000000000000000000000000000815260040180806020018281038252602a8152602001806125f1602a913960400191505060405180910390fd5b6040518060400160405280600981526020017f43616e64696461746500000000000000000000000000000000000000000000008152508360405160200180807f43616e6469646174650000000000000000000000000000000000000000000000815250600901905060405160208183030381529060405280519060200120826040516020018082805190602001908083835b60208310610b2b5780518252602082019150602081019050602083039250610b08565b6001836020036101000a038019825116818451168082178552505050505050905001915050604051602081830303815290604052805190602001201415610c1757600660008273ffffffffffffffffffffffffffffffffffffffff1673ffffffffffffffffffffffffffffffffffffffff16815260200190815260200160002060030160009054906101000a900460ff1615610c12576040517f08c379a00000000000000000000000000000000000000000000000000000000081526004018080602001828103825260248152602001806125846024913960400191505060405180910390fd5b610cdb565b600760008273ffffffffffffffffffffffffffffffffffffffff1673ffffffffffffffffffffffffffffffffffffffff16815260200190815260200160002060030160019054906101000a900460ff1615610cda576040517f08c379a00000000000000000000000000000000000000000000000000000000081526004018080602001828103825260208152602001807f5468697320766f74657220697320616c7265616479207265676973746572656481525060200191505060405180910390fd5b5b60015442118015610ced575060025442105b6003544211610d14576040518060600160405280602281526020016125a860229139610d2e565b6040518060600160405280602781526020016125ca602791395b90610dd4576040517f08c379a00000000000000000000000000000000000000000000000000000000081526004018080602001828103825283818151815260200191508051906020019080838360005b83811015610d99578082015181840152602081019050610d7e565b50505050905090810190601f168015610dc65780820380516001836020036101000a031916815260200191505b509250505060405180910390fd5b50600073ffffffffffffffffffffffffffffffffffffffff168573ffffffffffffffffffffffffffffffffffffffff161415610e78576040517f08c379a000000000000000000000000000000000000000000000000000000000815260040180806020018281038252601f8152602001807f43616e6469646174652041646472657373206d7573742062652076616c69640081525060200191505060405180910390fd5b83600660008773ffffffffffffffffffffffffffffffffffffffff1673ffffffffffffffffffffffffffffffffffffffff1681526020019081526020016000206000018190555082600660008773ffffffffffffffffffffffffffffffffffffffff1673ffffffffffffffffffffffffffffffffffffffff1681526020019081526020016000206001019080519060200190610f159291906124de565b506000600660008773ffffffffffffffffffffffffffffffffffffffff1673ffffffffffffffffffffffffffffffffffffffff168152602001908152602001600020600201819055506001600660008773ffffffffffffffffffffffffffffffffffffffff1673ffffffffffffffffffffffffffffffffffffffff16815260200190815260200160002060030160006101000a81548160ff021916908315150217905550610fcf600160055461245690919063ffffffff16565b6005819055507f287ab65235aa9a0baeed5b973fda48c77ebdc6f3dd931cfda1c082c0aecc1e738585604051808373ffffffffffffffffffffffffffffffffffffffff1673ffffffffffffffffffffffffffffffffffffffff1681526020018281526020019250505060405180910390a15050505050565b60045481565b6040518060400160405280600581526020017f566f7465720000000000000000000000000000000000000000000000000000008152503360405160200180807f43616e6469646174650000000000000000000000000000000000000000000000815250600901905060405160208183030381529060405280519060200120826040516020018082805190602001908083835b6020831061110257805182526020820191506020810190506020830392506110df565b6001836020036101000a03801982511681845116808217855250505050505090500191505060405160208183030381529060405280519060200120141561120a57600660008273ffffffffffffffffffffffffffffffffffffffff1673ffffffffffffffffffffffffffffffffffffffff16815260200190815260200160002060030160009054906101000a900460ff16611205576040517f08c379a00000000000000000000000000000000000000000000000000000000081526004018080602001828103825260208152602001807f546869732063616e646964617465206973206e6f74207265676973746572656481525060200191505060405180910390fd5b6112cd565b600760008273ffffffffffffffffffffffffffffffffffffffff1673ffffffffffffffffffffffffffffffffffffffff16815260200190815260200160002060030160019054906101000a900460ff166112cc576040517f08c379a000000000000000000000000000000000000000000000000000000000815260040180806020018281038252601c8152602001807f5468697320766f746572206973206e6f7420726567697374657265640000000081525060200191505060405180910390fd5b5b6040518060400160405280600581526020017f566f7465720000000000000000000000000000000000000000000000000000008152508360405160200180807f43616e6469646174650000000000000000000000000000000000000000000000815250600901905060405160208183030381529060405280519060200120826040516020018082805190602001908083835b60208310611382578051825260208201915060208101905060208303925061135f565b6001836020036101000a03801982511681845116808217855250505050505090500191505060405160208183030381529060405280519060200120141561148a57600660008273ffffffffffffffffffffffffffffffffffffffff1673ffffffffffffffffffffffffffffffffffffffff16815260200190815260200160002060030160009054906101000a900460ff16611485576040517f08c379a00000000000000000000000000000000000000000000000000000000081526004018080602001828103825260208152602001807f546869732063616e646964617465206973206e6f74207265676973746572656481525060200191505060405180910390fd5b61154d565b600760008273ffffffffffffffffffffffffffffffffffffffff1673ffffffffffffffffffffffffffffffffffffffff16815260200190815260200160002060030160019054906101000a900460ff1661154c576040517f08c379a000000000000000000000000000000000000000000000000000000000815260040180806020018281038252601c8152602001807f5468697320766f746572206973206e6f7420726567697374657265640000000081525060200191505060405180910390fd5b5b600760003373ffffffffffffffffffffffffffffffffffffffff1673ffffffffffffffffffffffffffffffffffffffff16815260200190815260200160002060030160009054906101000a900460ff1615611610576040517f08c379a00000000000000000000000000000000000000000000000000000000081526004018080602001828103825260168152602001807f596f75206861766520616c726561647920766f7465640000000000000000000081525060200191505060405180910390fd5b600760008673ffffffffffffffffffffffffffffffffffffffff1673ffffffffffffffffffffffffffffffffffffffff16815260200190815260200160002060030160009054906101000a900460ff16156116d3576040517f08c379a000000000000000000000000000000000000000000000000000000000815260040180806020018281038252601b8152602001807f44656c6567617465206861766520616c726561647920766f746564000000000081525060200191505060405180910390fd5b8473ffffffffffffffffffffffffffffffffffffffff163373ffffffffffffffffffffffffffffffffffffffff161415611775576040517f08c379a000000000000000000000000000000000000000000000000000000000815260040180806020018281038252601a8152602001807f43616e27742064656c656761746520746f20796f757273656c6600000000000081525060200191505060405180910390fd5b61180c600760003373ffffffffffffffffffffffffffffffffffffffff1673ffffffffffffffffffffffffffffffffffffffff16815260200190815260200160002060020154600760008873ffffffffffffffffffffffffffffffffffffffff1673ffffffffffffffffffffffffffffffffffffffff1681526020019081526020016000206002015461245690919063ffffffff16565b506000600760003373ffffffffffffffffffffffffffffffffffffffff1673ffffffffffffffffffffffffffffffffffffffff168152602001908152602001600020600201819055506001600760003373ffffffffffffffffffffffffffffffffffffffff1673ffffffffffffffffffffffffffffffffffffffff16815260200190815260200160002060030160006101000a81548160ff0219169083151502179055507fc69c67ef35522d4aeea302730c41c0e5167a2c4c8cf220bce2a1d6ce8a580d973386600760008973ffffffffffffffffffffffffffffffffffffffff1673ffffffffffffffffffffffffffffffffffffffff16815260200190815260200160002060020154604051808473ffffffffffffffffffffffffffffffffffffffff1673ffffffffffffffffffffffffffffffffffffffff1681526020018373ffffffffffffffffffffffffffffffffffffffff1673ffffffffffffffffffffffffffffffffffffffff168152602001828152602001935050505060405180910390a15050505050565b6000809054906101000a900473ffffffffffffffffffffffffffffffffffffffff1681565b60015481565b60025481565b6006602052806000526040600020600091509050806000015490806001018054600181600116156101000203166002900480601f016020809104026020016040519081016040528092919081815260200182805460018160011615610100020316600290048015611a7b5780601f10611a5057610100808354040283529160200191611a7b565b820191906000526020600020905b815481529060010190602001808311611a5e57829003601f168201915b5050505050908060020154908060030160009054906101000a900460ff16905084565b6040518060400160405280600981526020017f43616e64696461746500000000000000000000000000000000000000000000008152508160405160200180807f43616e6469646174650000000000000000000000000000000000000000000000815250600901905060405160208183030381529060405280519060200120826040516020018082805190602001908083835b60208310611b535780518252602082019150602081019050602083039250611b30565b6001836020036101000a038019825116818451168082178552505050505050905001915050604051602081830303815290604052805190602001201415611c5b57600660008273ffffffffffffffffffffffffffffffffffffffff1673ffffffffffffffffffffffffffffffffffffffff16815260200190815260200160002060030160009054906101000a900460ff16611c56576040517f08c379a00000000000000000000000000000000000000000000000000000000081526004018080602001828103825260208152602001807f546869732063616e646964617465206973206e6f74207265676973746572656481525060200191505060405180910390fd5b611d1e565b600760008273ffffffffffffffffffffffffffffffffffffffff1673ffffffffffffffffffffffffffffffffffffffff16815260200190815260200160002060030160019054906101000a900460ff16611d1d576040517f08c379a000000000000000000000000000000000000000000000000000000000815260040180806020018281038252601c8152602001807f5468697320766f746572206973206e6f7420726567697374657265640000000081525060200191505060405180910390fd5b5b6040518060400160405280600581526020017f566f7465720000000000000000000000000000000000000000000000000000008152503360405160200180807f43616e6469646174650000000000000000000000000000000000000000000000815250600901905060405160208183030381529060405280519060200120826040516020018082805190602001908083835b60208310611dd35780518252602082019150602081019050602083039250611db0565b6001836020036101000a038019825116818451168082178552505050505050905001915050604051602081830303815290604052805190602001201415611edb57600660008273ffffffffffffffffffffffffffffffffffffffff1673ffffffffffffffffffffffffffffffffffffffff16815260200190815260200160002060030160009054906101000a900460ff16611ed6576040517f08c379a00000000000000000000000000000000000000000000000000000000081526004018080602001828103825260208152602001807f546869732063616e646964617465206973206e6f74207265676973746572656481525060200191505060405180910390fd5b611f9e565b600760008273ffffffffffffffffffffffffffffffffffffffff1673ffffffffffffffffffffffffffffffffffffffff16815260200190815260200160002060030160019054906101000a900460ff16611f9d576040517f08c379a000000000000000000000000000000000000000000000000000000000815260040180806020018281038252601c8152602001807f5468697320766f746572206973206e6f7420726567697374657265640000000081525060200191505060405180910390fd5b5b60035442118015611fb0575060045442105b6003544211611ff4576040518060400160405280601681526020017f566f74696e672070686173652068617320656e6465640000000000000000000081525061202b565b6040518060400160405280601b81526020017f566f74696e67207068617365206861736e2774207374617274656400000000008152505b906120d1576040517f08c379a00000000000000000000000000000000000000000000000000000000081526004018080602001828103825283818151815260200191508051906020019080838360005b8381101561209657808201518184015260208101905061207b565b50505050905090810190601f1680156120c35780820380516001836020036101000a031916815260200191505b509250505060405180910390fd5b50600760003373ffffffffffffffffffffffffffffffffffffffff1673ffffffffffffffffffffffffffffffffffffffff16815260200190815260200160002060030160009054906101000a900460ff1615612195576040517f08c379a00000000000000000000000000000000000000000000000000000000081526004018080602001828103825260168152602001807f596f75206861766520616c726561647920766f7465640000000000000000000081525060200191505060405180910390fd5b61222c600760003373ffffffffffffffffffffffffffffffffffffffff1673ffffffffffffffffffffffffffffffffffffffff16815260200190815260200160002060020154600660008873ffffffffffffffffffffffffffffffffffffffff1673ffffffffffffffffffffffffffffffffffffffff1681526020019081526020016000206002015461245690919063ffffffff16565b506000600760003373ffffffffffffffffffffffffffffffffffffffff1673ffffffffffffffffffffffffffffffffffffffff168152602001908152602001600020600201819055506001600760003373ffffffffffffffffffffffffffffffffffffffff1673ffffffffffffffffffffffffffffffffffffffff16815260200190815260200160002060030160006101000a81548160ff0219169083151502179055507fce0c7a2a940807f7dc2ce7a615c2532e915e6c0ac9a08bc4ed9d515a710a53e23386604051808373ffffffffffffffffffffffffffffffffffffffff1673ffffffffffffffffffffffffffffffffffffffff1681526020018273ffffffffffffffffffffffffffffffffffffffff1673ffffffffffffffffffffffffffffffffffffffff1681526020019250505060405180910390a15050505050565b6007602052806000526040600020600091509050806000015490806001018054600181600116156101000203166002900480601f0160208091040260200160405190810160405280929190818152602001828054600181600116156101000203166002900480156124205780601f106123f557610100808354040283529160200191612420565b820191906000526020600020905b81548152906001019060200180831161240357829003601f168201915b5050505050908060020154908060030160009054906101000a900460ff16908060030160019054906101000a900460ff16905085565b6000808284019050838110156124d4576040517f08c379a000000000000000000000000000000000000000000000000000000000815260040180806020018281038252601b8152602001807f536166654d6174683a206164646974696f6e206f766572666c6f77000000000081525060200191505060405180910390fd5b8091505092915050565b828054600181600116156101000203166002900490600052602060002090601f016020900481019282601f1061251f57805160ff191683800117855561254d565b8280016001018555821561254d579182015b8281111561254c578251825591602001919060010190612531565b5b50905061255a919061255e565b5090565b61258091905b8082111561257c576000816000905550600101612564565b5090565b9056fe546869732063616e64696461746520697320616c7265616479207265676973746572656441646469646e672043616e646964617465732070686173652068617320656e64656441646469646e672043616e64696461746573207068617365206861736e277420737461727465644f776e6572206d7573742062652074686520696e766f6b6572206f6620746869732066756e6374696f6ea165627a7a72305820b9cbadc8a3c4cfbddc875369b261d73819b5a888e6e84b01e00e0d1fde55a2be0029496e74696c617a696e6720436f6e74727563742068617320676f6e652077726f6e672c20706c6561736520636865636b2074686520706172616d6574657273",
  "source": "pragma solidity >= 0.4.22 < 0.6.0;\n\nimport \"./SafeMath.sol\";\n\ncontract Elections {\n    using SafeMath for uint256;\n\n    address public owner;\n    struct Candidate {\n      uint offChainId;\n      string SSN;\n      uint voteCount;\n      bool exists;\n    }\n    struct Voter {\n      uint offChainId;\n      string SSN;\n      uint voteWeight;\n      bool voted;\n      bool exists;\n    }\n\n    uint public addCandidatesPhaseStart;\n    uint public addCandidatesPhaseEnd;\n    uint public votingPhaseStart;\n    uint public votingPhaseEnd;\n\n    uint _totalCandidates;\n    mapping (address => Candidate) public Candidates;\n    mapping (address => Voter) public Voters;\n\n    event ParticipantAdded(address _candidate, uint _id);\n    event DelegateAnotherVoter(address _from, address _to, uint _delegateWeight);\n    event Voted(address _voter, address _candidate);\n\n    modifier onlyOwner {\n        require(msg.sender == owner,\n        \"Owner must be the invoker of this function\");\n        _;\n    }\n\n    modifier notRegistered(string memory _type, address _address) {\n        if(keccak256(abi.encodePacked(_type)) == keccak256(abi.encodePacked(\"Candidate\")))\n            require(!Candidates[_address].exists,\n            \"This candidate is already registered\");\n        else\n            require(!Voters[_address].exists,\n            \"This voter is already registered\");\n        _;\n    }\n\n    modifier Registered(string memory _type, address _address) {\n        if(keccak256(abi.encodePacked(_type)) == keccak256(abi.encodePacked(\"Candidate\")))\n            require(Candidates[_address].exists,\n            \"This candidate is not registered\");\n        else\n            require(Voters[_address].exists,\n            \"This voter is not registered\");\n        _;\n    }\n\n    modifier addingCandidatePhase() {\n        require((block.timestamp > addCandidatesPhaseStart && block.timestamp < addCandidatesPhaseEnd),\n                 block.timestamp > votingPhaseStart ? \"Addidng Candidates phase hasn't started\" : \"Addidng Candidates phase has ended\");\n        _;\n    }\n\n    modifier VotingPhase() {\n        require((block.timestamp > votingPhaseStart && block.timestamp < votingPhaseEnd),\n            block.timestamp > votingPhaseStart ? \"Voting phase hasn't started\" : \"Voting phase has ended\");\n        _;\n    }\n\n    constructor (address _owner, uint _addCandidatesPhaseStart, uint _addCandidatesPhasePeriod, uint _votingPhasePeriod) public{\n        require(_owner != address(0) &&\n        _addCandidatesPhaseStart != 0 &&\n        _addCandidatesPhasePeriod != 0 &&\n        _votingPhasePeriod != 0,\n        \"Intilazing Contruct has gone wrong, please check the parameters\");\n\n        owner = _owner;\n        addCandidatesPhaseStart = _addCandidatesPhaseStart;\n        addCandidatesPhaseEnd = calculatePhaseEnding(_addCandidatesPhaseStart, _addCandidatesPhasePeriod);\n        votingPhaseStart = addCandidatesPhaseEnd;\n        votingPhaseEnd = calculatePhaseEnding(votingPhaseStart, _votingPhasePeriod);\n        _totalCandidates = 0;\n    }\n\n    function AddCandidate(address _candidate, uint _id, string memory _ssn) public\n        onlyOwner\n        notRegistered(\"Candidate\", _candidate)\n        addingCandidatePhase{\n\n        require(_candidate != address(0), \"Candidate Address must be valid\");\n\n        Candidates[_candidate].offChainId = _id;\n        Candidates[_candidate].SSN = _ssn;\n        Candidates[_candidate].voteCount = 0;\n        Candidates[_candidate].exists = true;\n\n        _totalCandidates = _totalCandidates.add(1);\n        emit ParticipantAdded(_candidate, _id);\n    }\n\n    function RegisterVoter(uint _id, string memory _ssn) public notRegistered(\"Voter\", msg.sender) {\n        Voters[msg.sender].offChainId = _id;\n        Voters[msg.sender].SSN = _ssn;\n        Voters[msg.sender].voteWeight = 1;\n        Voters[msg.sender].voted = false;\n        Voters[msg.sender].exists = true;\n\n        emit ParticipantAdded(msg.sender, _id);\n    }\n\n    function DelegateVoter(address _voter) public Registered(\"Voter\", msg.sender) Registered(\"Voter\", _voter){\n        require(!Voters[msg.sender].voted, \"You have already voted\");\n        require(!Voters[_voter].voted, \"Delegate have already voted\");\n        require(msg.sender != _voter, \"Can't delegate to yourself\");\n\n        Voters[_voter].voteWeight.add(Voters[msg.sender].voteWeight);\n        Voters[msg.sender].voteWeight = 0;\n        Voters[msg.sender].voted = true;\n        emit DelegateAnotherVoter(msg.sender, _voter, Voters[_voter].voteWeight);\n    }\n\n    // Comment Voting phase before automation testing\n    function Vote(address _candidate) public Registered(\"Candidate\", _candidate) Registered(\"Voter\", msg.sender) VotingPhase(){\n        require(!Voters[msg.sender].voted, \"You have already voted\");\n\n        Candidates[_candidate].voteCount.add(Voters[msg.sender].voteWeight);\n        Voters[msg.sender].voteWeight = 0;\n        Voters[msg.sender].voted = true;\n        emit Voted(msg.sender, _candidate);\n    }\n\n    function calculatePhaseEnding(uint _start, uint _period) private pure returns(uint _end) {\n        _end = _start + _period;\n    }\n}",
  "sourcePath": "/home/nour/Documents/Truffle/Delect/contracts/Election.sol",
  "compiler": {
    "name": "solc",
    "version": "0.5.8+commit.23d335f2.Emscripten.clang"
  },
  "schemaVersion": "3.0.11",
  "updatedAt": "2019-09-11T21:59:31.083Z",
  "devdoc": {
    "methods": {}
  },
  "userdoc": {
    "methods": {}
  }
}